{
  "contractName": "TaskManager",
  "abi": [
    {
      "anonymous": false,
      "inputs": [
        {
          "indexed": false,
          "internalType": "uint256",
          "name": "taskId",
          "type": "uint256"
        },
        {
          "indexed": false,
          "internalType": "string",
          "name": "data",
          "type": "string"
        },
        {
          "indexed": false,
          "internalType": "uint256",
          "name": "createdOn",
          "type": "uint256"
        },
        {
          "indexed": false,
          "internalType": "bool",
          "name": "done",
          "type": "bool"
        }
      ],
      "name": "taskCreated",
      "type": "event"
    },
    {
      "anonymous": false,
      "inputs": [
        {
          "indexed": false,
          "internalType": "uint256",
          "name": "id",
          "type": "uint256"
        },
        {
          "indexed": false,
          "internalType": "bool",
          "name": "done",
          "type": "bool"
        },
        {
          "indexed": false,
          "internalType": "uint256",
          "name": "completedOn",
          "type": "uint256"
        }
      ],
      "name": "taskStatusToggled",
      "type": "event"
    },
    {
      "inputs": [
        {
          "internalType": "string",
          "name": "_data",
          "type": "string"
        }
      ],
      "name": "createTask",
      "outputs": [],
      "stateMutability": "nonpayable",
      "type": "function"
    },
    {
      "inputs": [
        {
          "internalType": "uint256",
          "name": "id",
          "type": "uint256"
        }
      ],
      "name": "toggleDone",
      "outputs": [],
      "stateMutability": "nonpayable",
      "type": "function"
    },
    {
      "inputs": [
        {
          "internalType": "uint256",
          "name": "id",
          "type": "uint256"
        }
      ],
      "name": "getTask",
      "outputs": [
        {
          "internalType": "uint256",
          "name": "",
          "type": "uint256"
        },
        {
          "internalType": "string",
          "name": "",
          "type": "string"
        },
        {
          "internalType": "uint256",
          "name": "",
          "type": "uint256"
        },
        {
          "internalType": "bool",
          "name": "",
          "type": "bool"
        },
        {
          "internalType": "uint256",
          "name": "",
          "type": "uint256"
        }
      ],
      "stateMutability": "view",
      "type": "function",
      "constant": true
    },
    {
      "inputs": [],
      "name": "get_Task_Ids",
      "outputs": [
        {
          "internalType": "uint256[]",
          "name": "",
          "type": "uint256[]"
        }
      ],
      "stateMutability": "view",
      "type": "function",
      "constant": true
    },
    {
      "inputs": [],
      "name": "total_Tasks",
      "outputs": [
        {
          "internalType": "uint256",
          "name": "",
          "type": "uint256"
        }
      ],
      "stateMutability": "view",
      "type": "function",
      "constant": true
    }
  ],
  "bytecode": "0x608060405234801561001057600080fd5b50610c76806100206000396000f3fe608060405234801561001057600080fd5b50600436106100575760003560e01c8063111002aa1461005c5780631d65e77e146100785780638bcc3b70146100ac578063a4c7de66146100ca578063d81ef739146100e8575b600080fd5b610076600480360381019061007191906106e2565b610104565b005b610092600480360381019061008d9190610723565b61022f565b6040516100a39594939291906109a8565b60405180910390f35b6100b46103ac565b6040516100c1919061090a565b60405180910390f35b6100d26103b9565b6040516100df91906108a8565b60405180910390f35b61010260048036038101906100fd9190610723565b610459565b005b6001600081548092919061011790610b42565b919050555060006040518060a001604052806001548152602001838152602001428152602001600015158152602001600081525090508060008060015481526020019081526020016000206000820151816000015560208201518160010190805190602001906101889291906105c2565b506040820151816002015560608201518160030160006101000a81548160ff02191690831515021790555060808201518160040155905050600260015490806001815401808255809150506001900390600052602060002001600090919091909150557f83926151b0e27147bfc3fe14f6d4af601a72f066c33a2bf7c3e488d92f1e428560015483426000604051610223949392919061095c565b60405180910390a15050565b600060606000806000856000806000838152602001908152602001600020600001541415610292576040517f08c379a0000000000000000000000000000000000000000000000000000000008152600401610289906108ea565b60405180910390fd5b600080888152602001908152602001600020600001546000808981526020019081526020016000206001016000808a8152602001908152602001600020600201546000808b815260200190815260200160002060030160009054906101000a900460ff166000808c81526020019081526020016000206004015483805461031890610b10565b80601f016020809104026020016040519081016040528092919081815260200182805461034490610b10565b80156103915780601f1061036657610100808354040283529160200191610391565b820191906000526020600020905b81548152906001019060200180831161037457829003601f168201915b50505050509350955095509550955095505091939590929450565b6000600280549050905090565b6060600060028054905011610403576040517f08c379a00000000000000000000000000000000000000000000000000000000081526004016103fa906108ca565b60405180910390fd5b600280548060200260200160405190810160405280929190818152602001828054801561044f57602002820191906000526020600020905b81548152602001906001019080831161043b575b5050505050905090565b8060008060008381526020019081526020016000206000015414156104b3576040517f08c379a00000000000000000000000000000000000000000000000000000000081526004016104aa906108ea565b60405180910390fd5b60008083815260200190815260200160002060030160009054906101000a900460ff161560008084815260200190815260200160002060030160006101000a81548160ff02191690831515021790555060008083815260200190815260200160002060030160009054906101000a900460ff16610531576000610533565b425b600080848152602001908152602001600020600401819055507f3816415a2a6c3f2caef3f90760b6a155a632b558266b176337a9e7b91fc0dcca8260008085815260200190815260200160002060030160009054906101000a900460ff16600080868152602001908152602001600020600401546040516105b693929190610925565b60405180910390a15050565b8280546105ce90610b10565b90600052602060002090601f0160209004810192826105f05760008555610637565b82601f1061060957805160ff1916838001178555610637565b82800160010185558215610637579182015b8281111561063657825182559160200191906001019061061b565b5b5090506106449190610648565b5090565b5b80821115610661576000816000905550600101610649565b5090565b600061067861067384610a33565b610a02565b90508281526020810184848401111561069057600080fd5b61069b848285610ace565b509392505050565b600082601f8301126106b457600080fd5b81356106c4848260208601610665565b91505092915050565b6000813590506106dc81610c29565b92915050565b6000602082840312156106f457600080fd5b600082013567ffffffffffffffff81111561070e57600080fd5b61071a848285016106a3565b91505092915050565b60006020828403121561073557600080fd5b6000610743848285016106cd565b91505092915050565b6000610758838361088a565b60208301905092915050565b600061076f82610a73565b6107798185610a96565b935061078483610a63565b8060005b838110156107b557815161079c888261074c565b97506107a783610a89565b925050600181019050610788565b5085935050505092915050565b6107cb81610ab8565b82525050565b60006107dc82610a7e565b6107e68185610aa7565b93506107f6818560208601610add565b6107ff81610c18565b840191505092915050565b6000610817601483610aa7565b91507f4e6f20616e79205461736b20637265617465642e0000000000000000000000006000830152602082019050919050565b6000610857601183610aa7565b91507f5461736b206973206e6f742065786973740000000000000000000000000000006000830152602082019050919050565b61089381610ac4565b82525050565b6108a281610ac4565b82525050565b600060208201905081810360008301526108c28184610764565b905092915050565b600060208201905081810360008301526108e38161080a565b9050919050565b600060208201905081810360008301526109038161084a565b9050919050565b600060208201905061091f6000830184610899565b92915050565b600060608201905061093a6000830186610899565b61094760208301856107c2565b6109546040830184610899565b949350505050565b60006080820190506109716000830187610899565b818103602083015261098381866107d1565b90506109926040830185610899565b61099f60608301846107c2565b95945050505050565b600060a0820190506109bd6000830188610899565b81810360208301526109cf81876107d1565b90506109de6040830186610899565b6109eb60608301856107c2565b6109f86080830184610899565b9695505050505050565b6000604051905081810181811067ffffffffffffffff82111715610a2957610a28610be9565b5b8060405250919050565b600067ffffffffffffffff821115610a4e57610a4d610be9565b5b601f19601f8301169050602081019050919050565b6000819050602082019050919050565b600081519050919050565b600081519050919050565b6000602082019050919050565b600082825260208201905092915050565b600082825260208201905092915050565b60008115159050919050565b6000819050919050565b82818337600083830152505050565b60005b83811015610afb578082015181840152602081019050610ae0565b83811115610b0a576000848401525b50505050565b60006002820490506001821680610b2857607f821691505b60208210811415610b3c57610b3b610bba565b5b50919050565b6000610b4d82610ac4565b91507fffffffffffffffffffffffffffffffffffffffffffffffffffffffffffffffff821415610b8057610b7f610b8b565b5b600182019050919050565b7f4e487b7100000000000000000000000000000000000000000000000000000000600052601160045260246000fd5b7f4e487b7100000000000000000000000000000000000000000000000000000000600052602260045260246000fd5b7f4e487b7100000000000000000000000000000000000000000000000000000000600052604160045260246000fd5b6000601f19601f8301169050919050565b610c3281610ac4565b8114610c3d57600080fd5b5056fea26469706673582212207851db95d72c99619fe09eaa89dc718900061076258a82d446883e53d64e3d7464736f6c63430008000033",
  "immutableReferences": {},
  "source": "pragma solidity ^0.8.0;\r\n\r\ncontract TaskManager {\r\n    \r\n    struct Task {\r\n        uint taskId;\r\n        string data;\r\n        uint createdOn;\r\n        bool done;\r\n        uint completedOn;\r\n    }\r\n    mapping(uint => Task) tasks;\r\n    uint taskCounter;\r\n    uint[] taskIds;\r\n    \r\n    event taskCreated(uint taskId,string data, uint createdOn, bool done);\r\n    event taskStatusToggled(uint id, bool done, uint completedOn);\r\n    \r\n    modifier taskExist(uint id) {\r\n        require(tasks[id].taskId != 0, \"Task is not exist\");\r\n        _;\r\n    }\r\n    \r\n    modifier checkTaskId() {\r\n        require(taskIds.length > 0, \"No any Task created.\");\r\n        _;\r\n    }\r\n    \r\n    function createTask(string memory _data)public {\r\n        taskCounter++;\r\n        Task memory task = Task(taskCounter, _data, block.timestamp, false,0);\r\n        tasks[taskCounter] = task;\r\n        taskIds.push(taskCounter);\r\n        emit taskCreated(taskCounter, _data, block.timestamp, false);\r\n    }\r\n    \r\n    function toggleDone(uint id) public taskExist(id){\r\n        tasks[id].done = !tasks[id].done;\r\n        tasks[id].completedOn = tasks[id].done ? block.timestamp: 0;\r\n        emit taskStatusToggled(id, tasks[id].done, tasks[id].completedOn);\r\n    }\r\n    \r\n    function getTask(uint id) public taskExist(id) view returns(uint, string memory, uint, bool, uint) {\r\n        return(tasks[id].taskId, tasks[id].data, tasks[id].createdOn, tasks[id].done, tasks[id].completedOn);\r\n    }\r\n    \r\n    function get_Task_Ids()public checkTaskId view returns(uint[] memory) {\r\n        return taskIds;\r\n    }\r\n    \r\n    function total_Tasks() public view returns(uint) {\r\n        return taskIds.length;\r\n    }\r\n}",
  "sourcePath": "F:/Blockchain/Practice/Task manager/contracts/TaskManager.sol",
  "compiler": {
    "name": "solc",
    "version": "0.8.0+commit.c7dfd78e.Emscripten.clang"
  },
  "schemaVersion": "3.3.4",
  "updatedAt": "2021-03-05T04:43:53.283Z",
  "networkType": "ethereum",
  "devdoc": {
    "kind": "dev",
    "methods": {},
    "version": 1
  },
  "userdoc": {
    "kind": "user",
    "methods": {},
    "version": 1
  }
}